{
  "contractName": "Vestrade_Offering",
  "abi": [
    {
      "constant": true,
      "inputs": [],
      "name": "supply",
      "outputs": [
        {
          "name": "",
          "type": "uint256"
        }
      ],
      "payable": false,
      "stateMutability": "view",
      "type": "function"
    },
    {
      "constant": true,
      "inputs": [],
      "name": "name",
      "outputs": [
        {
          "name": "",
          "type": "string"
        }
      ],
      "payable": false,
      "stateMutability": "view",
      "type": "function"
    },
    {
      "constant": true,
      "inputs": [],
      "name": "startDate",
      "outputs": [
        {
          "name": "",
          "type": "uint64"
        }
      ],
      "payable": false,
      "stateMutability": "view",
      "type": "function"
    },
    {
      "constant": true,
      "inputs": [],
      "name": "rate",
      "outputs": [
        {
          "name": "",
          "type": "uint256"
        }
      ],
      "payable": false,
      "stateMutability": "view",
      "type": "function"
    },
    {
      "constant": true,
      "inputs": [],
      "name": "tokenAddr",
      "outputs": [
        {
          "name": "",
          "type": "address"
        }
      ],
      "payable": false,
      "stateMutability": "view",
      "type": "function"
    },
    {
      "constant": false,
      "inputs": [],
      "name": "renounceOwnership",
      "outputs": [],
      "payable": false,
      "stateMutability": "nonpayable",
      "type": "function"
    },
    {
      "constant": true,
      "inputs": [],
      "name": "owner",
      "outputs": [
        {
          "name": "",
          "type": "address"
        }
      ],
      "payable": false,
      "stateMutability": "view",
      "type": "function"
    },
    {
      "constant": true,
      "inputs": [],
      "name": "isOwner",
      "outputs": [
        {
          "name": "",
          "type": "bool"
        }
      ],
      "payable": false,
      "stateMutability": "view",
      "type": "function"
    },
    {
      "constant": true,
      "inputs": [],
      "name": "balance",
      "outputs": [
        {
          "name": "",
          "type": "uint256"
        }
      ],
      "payable": false,
      "stateMutability": "view",
      "type": "function"
    },
    {
      "constant": true,
      "inputs": [],
      "name": "endDate",
      "outputs": [
        {
          "name": "",
          "type": "uint64"
        }
      ],
      "payable": false,
      "stateMutability": "view",
      "type": "function"
    },
    {
      "constant": true,
      "inputs": [],
      "name": "init",
      "outputs": [
        {
          "name": "",
          "type": "bool"
        }
      ],
      "payable": false,
      "stateMutability": "view",
      "type": "function"
    },
    {
      "constant": false,
      "inputs": [
        {
          "name": "newOwner",
          "type": "address"
        }
      ],
      "name": "transferOwnership",
      "outputs": [],
      "payable": false,
      "stateMutability": "nonpayable",
      "type": "function"
    },
    {
      "inputs": [
        {
          "name": "_name",
          "type": "string"
        },
        {
          "name": "_tokenAddr",
          "type": "address"
        },
        {
          "name": "_supply",
          "type": "uint256"
        },
        {
          "name": "_rate",
          "type": "uint256"
        },
        {
          "name": "_startDate",
          "type": "uint64"
        },
        {
          "name": "_endDate",
          "type": "uint64"
        }
      ],
      "payable": true,
      "stateMutability": "payable",
      "type": "constructor"
    },
    {
      "anonymous": false,
      "inputs": [
        {
          "indexed": false,
          "name": "addr",
          "type": "address"
        },
        {
          "indexed": false,
          "name": "from",
          "type": "address"
        },
        {
          "indexed": false,
          "name": "tokenAddr",
          "type": "address"
        },
        {
          "indexed": false,
          "name": "tokens",
          "type": "uint256"
        },
        {
          "indexed": false,
          "name": "amount",
          "type": "uint256"
        },
        {
          "indexed": false,
          "name": "timestamp",
          "type": "uint256"
        }
      ],
      "name": "Buy",
      "type": "event"
    },
    {
      "anonymous": false,
      "inputs": [
        {
          "indexed": false,
          "name": "addr",
          "type": "address"
        },
        {
          "indexed": false,
          "name": "timestamp",
          "type": "uint256"
        }
      ],
      "name": "Active",
      "type": "event"
    },
    {
      "anonymous": false,
      "inputs": [
        {
          "indexed": true,
          "name": "previousOwner",
          "type": "address"
        },
        {
          "indexed": true,
          "name": "newOwner",
          "type": "address"
        }
      ],
      "name": "OwnershipTransferred",
      "type": "event"
    },
    {
      "constant": true,
      "inputs": [],
      "name": "offeringStatus",
      "outputs": [
        {
          "name": "",
          "type": "bool"
        }
      ],
      "payable": false,
      "stateMutability": "view",
      "type": "function"
    },
    {
      "constant": true,
      "inputs": [],
      "name": "mintStatus",
      "outputs": [
        {
          "name": "",
          "type": "bool"
        }
      ],
      "payable": false,
      "stateMutability": "view",
      "type": "function"
    },
    {
      "constant": false,
      "inputs": [],
      "name": "startOffering",
      "outputs": [],
      "payable": false,
      "stateMutability": "nonpayable",
      "type": "function"
    },
    {
      "constant": false,
      "inputs": [],
      "name": "withdraw",
      "outputs": [],
      "payable": false,
      "stateMutability": "nonpayable",
      "type": "function"
    },
    {
      "constant": false,
      "inputs": [
        {
          "name": "tokens",
          "type": "uint256"
        }
      ],
      "name": "buy",
      "outputs": [],
      "payable": true,
      "stateMutability": "payable",
      "type": "function"
    }
  ],
  "bytecode": "0x6080604052604051620016dd380380620016dd833981018060405260c08110156200002957600080fd5b8101908080516401000000008111156200004257600080fd5b828101905060208101848111156200005957600080fd5b81518560018202830111640100000000821117156200007757600080fd5b505092919060200180519060200190929190805190602001909291908051906020019092919080519060200190929190805190602001909291905050506000620000cf6200023a640100000000026401000000009004565b9050806000806101000a81548173ffffffffffffffffffffffffffffffffffffffff021916908373ffffffffffffffffffffffffffffffffffffffff1602179055508073ffffffffffffffffffffffffffffffffffffffff16600073ffffffffffffffffffffffffffffffffffffffff167f8be0079c531659141344cd1fd0a4f28419497f9722a3daafe3b4186f6b6457e060405160405180910390a35085600190805190602001906200018592919062000242565b5084600260006101000a81548173ffffffffffffffffffffffffffffffffffffffff021916908373ffffffffffffffffffffffffffffffffffffffff16021790555082600381905550836004819055508360058190555081600660006101000a81548167ffffffffffffffff021916908367ffffffffffffffff16021790555080600660086101000a81548167ffffffffffffffff021916908367ffffffffffffffff160217905550505050505050620002f1565b600033905090565b828054600181600116156101000203166002900490600052602060002090601f016020900481019282601f106200028557805160ff1916838001178555620002b6565b82800160010185558215620002b6579182015b82811115620002b557825182559160200191906001019062000298565b5b509050620002c59190620002c9565b5090565b620002ee91905b80821115620002ea576000816000905550600101620002d0565b5090565b90565b6113dc80620003016000396000f3fe6080604052600436106100f1576000357c0100000000000000000000000000000000000000000000000000000000900463ffffffff168063047fc9aa146100f657806306fdde03146101215780630b97bc86146101b15780632c4e722e146101f05780632f3fecaa1461021b5780633ccfd60b146102325780635fbe4d1d14610249578063715018a6146102a05780638da5cb5b146102b75780638f32d59b1461030e5780639da3f8fd1461033d578063b69ef8a81461036c578063c24a0f8b14610397578063d96a094a146103d6578063e1c7392a14610404578063edaab20814610433578063f2fde38b14610462575b600080fd5b34801561010257600080fd5b5061010b6104b3565b6040518082815260200191505060405180910390f35b34801561012d57600080fd5b506101366104b9565b6040518080602001828103825283818151815260200191508051906020019080838360005b8381101561017657808201518184015260208101905061015b565b50505050905090810190601f1680156101a35780820380516001836020036101000a031916815260200191505b509250505060405180910390f35b3480156101bd57600080fd5b506101c6610557565b604051808267ffffffffffffffff1667ffffffffffffffff16815260200191505060405180910390f35b3480156101fc57600080fd5b50610205610571565b6040518082815260200191505060405180910390f35b34801561022757600080fd5b50610230610577565b005b34801561023e57600080fd5b50610247610810565b005b34801561025557600080fd5b5061025e610998565b604051808273ffffffffffffffffffffffffffffffffffffffff1673ffffffffffffffffffffffffffffffffffffffff16815260200191505060405180910390f35b3480156102ac57600080fd5b506102b56109be565b005b3480156102c357600080fd5b506102cc610af9565b604051808273ffffffffffffffffffffffffffffffffffffffff1673ffffffffffffffffffffffffffffffffffffffff16815260200191505060405180910390f35b34801561031a57600080fd5b50610323610b22565b604051808215151515815260200191505060405180910390f35b34801561034957600080fd5b50610352610b80565b604051808215151515815260200191505060405180910390f35b34801561037857600080fd5b50610381610c82565b6040518082815260200191505060405180910390f35b3480156103a357600080fd5b506103ac610c88565b604051808267ffffffffffffffff1667ffffffffffffffff16815260200191505060405180910390f35b610402600480360360208110156103ec57600080fd5b8101908080359060200190929190505050610ca2565b005b34801561041057600080fd5b5061041961116d565b604051808215151515815260200191505060405180910390f35b34801561043f57600080fd5b50610448611180565b604051808215151515815260200191505060405180910390f35b34801561046e57600080fd5b506104b16004803603602081101561048557600080fd5b81019080803573ffffffffffffffffffffffffffffffffffffffff169060200190929190505050611197565b005b60045481565b60018054600181600116156101000203166002900480601f01602080910402602001604051908101604052809291908181526020018280546001816001161561010002031660029004801561054f5780601f106105245761010080835404028352916020019161054f565b820191906000526020600020905b81548152906001019060200180831161053257829003601f168201915b505050505081565b600660009054906101000a900467ffffffffffffffff1681565b60035481565b61057f610b22565b15156105f3576040517f08c379a00000000000000000000000000000000000000000000000000000000081526004018080602001828103825260208152602001807f4f776e61626c653a2063616c6c6572206973206e6f7420746865206f776e657281525060200191505060405180910390fd5b600454600260009054906101000a900473ffffffffffffffffffffffffffffffffffffffff1673ffffffffffffffffffffffffffffffffffffffff166370a08231306040518263ffffffff167c0100000000000000000000000000000000000000000000000000000000028152600401808273ffffffffffffffffffffffffffffffffffffffff1673ffffffffffffffffffffffffffffffffffffffff16815260200191505060206040518083038186803b1580156106b157600080fd5b505afa1580156106c5573d6000803e3d6000fd5b505050506040513d60208110156106db57600080fd5b810190808051906020019092919050505010151515610788576040517f08c379a00000000000000000000000000000000000000000000000000000000081526004018080602001828103825260258152602001807f436f6e747261637420646f6573206e6f74206861766520656e6f75676820626181526020017f6c616e636500000000000000000000000000000000000000000000000000000081525060400191505060405180910390fd5b6001600260146101000a81548160ff0219169083151502179055507f969833a1ae1e62d1a2eb63244db2e4dee9a80ac3ca5d488533e908dee0f0f3563042604051808373ffffffffffffffffffffffffffffffffffffffff1673ffffffffffffffffffffffffffffffffffffffff1681526020018281526020019250505060405180910390a1565b610818610b22565b151561088c576040517f08c379a00000000000000000000000000000000000000000000000000000000081526004018080602001828103825260208152602001807f4f776e61626c653a2063616c6c6572206973206e6f7420746865206f776e657281525060200191505060405180910390fd5b600260009054906101000a900473ffffffffffffffffffffffffffffffffffffffff1673ffffffffffffffffffffffffffffffffffffffff1663a9059cbb6108d2610af9565b6005546040518363ffffffff167c0100000000000000000000000000000000000000000000000000000000028152600401808373ffffffffffffffffffffffffffffffffffffffff1673ffffffffffffffffffffffffffffffffffffffff16815260200182815260200192505050602060405180830381600087803b15801561095a57600080fd5b505af115801561096e573d6000803e3d6000fd5b505050506040513d602081101561098457600080fd5b810190808051906020019092919050505050565b600260009054906101000a900473ffffffffffffffffffffffffffffffffffffffff1681565b6109c6610b22565b1515610a3a576040517f08c379a00000000000000000000000000000000000000000000000000000000081526004018080602001828103825260208152602001807f4f776e61626c653a2063616c6c6572206973206e6f7420746865206f776e657281525060200191505060405180910390fd5b600073ffffffffffffffffffffffffffffffffffffffff166000809054906101000a900473ffffffffffffffffffffffffffffffffffffffff1673ffffffffffffffffffffffffffffffffffffffff167f8be0079c531659141344cd1fd0a4f28419497f9722a3daafe3b4186f6b6457e060405160405180910390a360008060006101000a81548173ffffffffffffffffffffffffffffffffffffffff021916908373ffffffffffffffffffffffffffffffffffffffff160217905550565b60008060009054906101000a900473ffffffffffffffffffffffffffffffffffffffff16905090565b60008060009054906101000a900473ffffffffffffffffffffffffffffffffffffffff1673ffffffffffffffffffffffffffffffffffffffff16610b6461121f565b73ffffffffffffffffffffffffffffffffffffffff1614905090565b6000600454600260009054906101000a900473ffffffffffffffffffffffffffffffffffffffff1673ffffffffffffffffffffffffffffffffffffffff166370a08231306040518263ffffffff167c0100000000000000000000000000000000000000000000000000000000028152600401808273ffffffffffffffffffffffffffffffffffffffff1673ffffffffffffffffffffffffffffffffffffffff16815260200191505060206040518083038186803b158015610c4057600080fd5b505afa158015610c54573d6000803e3d6000fd5b505050506040513d6020811015610c6a57600080fd5b81019080805190602001909291905050501015905090565b60055481565b600660089054906101000a900467ffffffffffffffff1681565b600260149054906101000a900460ff161515610d26576040517f08c379a000000000000000000000000000000000000000000000000000000000815260040180806020018281038252601b8152602001807f4f66666572696e67206973206e6f7420696e697469616c697a6564000000000081525060200191505060405180910390fd5b600354340281141515610dc7576040517f08c379a000000000000000000000000000000000000000000000000000000000815260040180806020018281038252602b8152602001807f416d6f756e74206973206e6f7420657175616c20746f2062757965722773207681526020017f616c75652078207261746500000000000000000000000000000000000000000081525060400191505060405180910390fd5b8060055410151515610e67576040517f08c379a00000000000000000000000000000000000000000000000000000000081526004018080602001828103825260308152602001807f50757263686173656420746f6b656e206973206d6f7265207468616e2074686581526020017f20617661696c61626c6520746f6b656e0000000000000000000000000000000081525060400191505060405180910390fd5b6000610e71610af9565b90508073ffffffffffffffffffffffffffffffffffffffff166108fc349081150290604051600060405180830381858888f19350505050158015610eb9573d6000803e3d6000fd5b50600260009054906101000a900473ffffffffffffffffffffffffffffffffffffffff1673ffffffffffffffffffffffffffffffffffffffff1663a9059cbb33846040518363ffffffff167c0100000000000000000000000000000000000000000000000000000000028152600401808373ffffffffffffffffffffffffffffffffffffffff1673ffffffffffffffffffffffffffffffffffffffff16815260200182815260200192505050602060405180830381600087803b158015610f7f57600080fd5b505af1158015610f93573d6000803e3d6000fd5b505050506040513d6020811015610fa957600080fd5b81019080805190602001909291905050501515611054576040517f08c379a00000000000000000000000000000000000000000000000000000000081526004018080602001828103825260268152602001807f4661696c6564207472616e736665722066726f6d20636f6e747261637420746f81526020017f206275796572000000000000000000000000000000000000000000000000000081525060400191505060405180910390fd5b816005600082825403925050819055507f2b136dc8a1e75af47608f32ab641e99cb1c02b2abe3f05d187f42a8b90421c4b3033600260009054906101000a900473ffffffffffffffffffffffffffffffffffffffff16853442604051808773ffffffffffffffffffffffffffffffffffffffff1673ffffffffffffffffffffffffffffffffffffffff1681526020018673ffffffffffffffffffffffffffffffffffffffff1673ffffffffffffffffffffffffffffffffffffffff1681526020018573ffffffffffffffffffffffffffffffffffffffff1673ffffffffffffffffffffffffffffffffffffffff168152602001848152602001838152602001828152602001965050505050505060405180910390a15050565b600260149054906101000a900460ff1681565b6000600260149054906101000a900460ff16905090565b61119f610b22565b1515611213576040517f08c379a00000000000000000000000000000000000000000000000000000000081526004018080602001828103825260208152602001807f4f776e61626c653a2063616c6c6572206973206e6f7420746865206f776e657281525060200191505060405180910390fd5b61121c81611227565b50565b600033905090565b600073ffffffffffffffffffffffffffffffffffffffff168173ffffffffffffffffffffffffffffffffffffffff16141515156112f2576040517f08c379a00000000000000000000000000000000000000000000000000000000081526004018080602001828103825260268152602001807f4f776e61626c653a206e6577206f776e657220697320746865207a65726f206181526020017f646472657373000000000000000000000000000000000000000000000000000081525060400191505060405180910390fd5b8073ffffffffffffffffffffffffffffffffffffffff166000809054906101000a900473ffffffffffffffffffffffffffffffffffffffff1673ffffffffffffffffffffffffffffffffffffffff167f8be0079c531659141344cd1fd0a4f28419497f9722a3daafe3b4186f6b6457e060405160405180910390a3806000806101000a81548173ffffffffffffffffffffffffffffffffffffffff021916908373ffffffffffffffffffffffffffffffffffffffff1602179055505056fea165627a7a723058203a91980713afcd85b7e9e6b759a469ec56ffa4a0cc020945b09f08d4bbd347bf0029",
  "source": "pragma solidity ^0.5.0;\n\nimport \"./common/Ownable.sol\";\nimport \"./Vestrade_ERC20.sol\";\n\ncontract Vestrade_Offering is Ownable {\n  using SafeMath for uint256;\n  string public name;\n  address public tokenAddr;\n  bool public init;\n  uint256 public rate;\n  uint256 public supply;\n  uint256 public balance;\n  uint64 public startDate;\n  uint64 public endDate;\n\n  event Buy(address addr, address from, address tokenAddr, uint256 tokens, uint256 amount, uint256 timestamp);\n  event Active(address addr, uint256 timestamp);\n\n  constructor(string memory _name, address _tokenAddr, uint256 _supply, uint256 _rate, uint64 _startDate, uint64 _endDate) public payable {\n    name = _name;\n    tokenAddr = _tokenAddr; // token address that being offered\n    rate = _rate; // in wei\n    supply = _supply; // max supply\n    balance = _supply; // current balance\n    startDate = _startDate; // offering start date\n    endDate = _endDate; // offering last date\n  }\n\n  function offeringStatus() public view returns (bool) {\n    return init;\n  }\n\n  function mintStatus() public view returns (bool) {\n    return Vestrade_ERC20(tokenAddr).balanceOf(address(this)) >= supply;\n  }\n\n  function startOffering() public onlyOwner {\n    require(\n      Vestrade_ERC20(tokenAddr).balanceOf(address(this)) >= supply,\n      \"Contract does not have enough balance\"\n    );\n    init = true;\n    emit Active(address(this), now);\n  }\n\n  function withdraw() public onlyOwner  {\n    Vestrade_ERC20(tokenAddr).transfer(owner(), balance);\n  }\n\n  function buy(uint256 tokens) public payable {\n    require(init, \"Offering is not initialized\");\n    require(\n      tokens == msg.value * rate,\n      \"Amount is not equal to buyer's value x rate\"\n    );\n    require(\n      balance >= tokens,\n      \"Purchased token is more than the available token\"\n    );\n    address payable ownerWallet = address(uint160(owner()));\n    ownerWallet.transfer(msg.value);\n    require(\n      Vestrade_ERC20(tokenAddr).transfer(msg.sender, tokens),\n      \"Failed transfer from contract to buyer\"\n    );\n    balance -= tokens;\n\n    emit Buy(address(this), address(msg.sender), address(tokenAddr), tokens, msg.value, now);\n  }\n}",
  "sourcePath": "/home/riqi/projects/vestrade-prototype/contracts/Vestrade_Offering.sol",
  "compiler": {
    "name": "solc",
    "version": "0.5.0+commit.1d4f565a.Emscripten.clang"
  },
  "schemaVersion": "3.2.3",
  "updatedAt": "2020-08-05T02:37:43.022Z",
  "devdoc": {
    "methods": {
      "isOwner()": {
        "details": "Returns true if the caller is the current owner."
      },
      "owner()": {
        "details": "Returns the address of the current owner."
      },
      "renounceOwnership()": {
        "details": "Leaves the contract without owner. It will not be possible to call `onlyOwner` functions anymore. Can only be called by the current owner.     * NOTE: Renouncing ownership will leave the contract without an owner, thereby removing any functionality that is only available to the owner."
      },
      "transferOwnership(address)": {
        "details": "Transfers ownership of the contract to a new account (`newOwner`). Can only be called by the current owner."
      }
    }
  },
  "userdoc": {
    "methods": {}
  }
}